{
  "contractName": "Rewards",
  "abi": [
    {
      "constant": true,
      "inputs": [],
      "name": "hasInitialized",
      "outputs": [
        {
          "name": "",
          "type": "bool"
        }
      ],
      "payable": false,
      "stateMutability": "view",
      "type": "function"
    },
    {
      "constant": true,
      "inputs": [
        {
          "name": "_script",
          "type": "bytes"
        }
      ],
      "name": "getEVMScriptExecutor",
      "outputs": [
        {
          "name": "",
          "type": "address"
        }
      ],
      "payable": false,
      "stateMutability": "view",
      "type": "function"
    },
    {
      "constant": true,
      "inputs": [],
      "name": "getRecoveryVault",
      "outputs": [
        {
          "name": "",
          "type": "address"
        }
      ],
      "payable": false,
      "stateMutability": "view",
      "type": "function"
    },
    {
      "constant": true,
      "inputs": [
        {
          "name": "token",
          "type": "address"
        }
      ],
      "name": "allowRecoverability",
      "outputs": [
        {
          "name": "",
          "type": "bool"
        }
      ],
      "payable": false,
      "stateMutability": "view",
      "type": "function"
    },
    {
      "constant": true,
      "inputs": [],
      "name": "appId",
      "outputs": [
        {
          "name": "",
          "type": "bytes32"
        }
      ],
      "payable": false,
      "stateMutability": "view",
      "type": "function"
    },
    {
      "constant": true,
      "inputs": [],
      "name": "totalClaimsEach",
      "outputs": [
        {
          "name": "",
          "type": "uint256"
        }
      ],
      "payable": false,
      "stateMutability": "view",
      "type": "function"
    },
    {
      "constant": true,
      "inputs": [],
      "name": "getInitializationBlock",
      "outputs": [
        {
          "name": "",
          "type": "uint256"
        }
      ],
      "payable": false,
      "stateMutability": "view",
      "type": "function"
    },
    {
      "constant": false,
      "inputs": [
        {
          "name": "_token",
          "type": "address"
        }
      ],
      "name": "transferToVault",
      "outputs": [],
      "payable": false,
      "stateMutability": "nonpayable",
      "type": "function"
    },
    {
      "constant": true,
      "inputs": [
        {
          "name": "_sender",
          "type": "address"
        },
        {
          "name": "_role",
          "type": "bytes32"
        },
        {
          "name": "_params",
          "type": "uint256[]"
        }
      ],
      "name": "canPerform",
      "outputs": [
        {
          "name": "",
          "type": "bool"
        }
      ],
      "payable": false,
      "stateMutability": "view",
      "type": "function"
    },
    {
      "constant": true,
      "inputs": [],
      "name": "getEVMScriptRegistry",
      "outputs": [
        {
          "name": "",
          "type": "address"
        }
      ],
      "payable": false,
      "stateMutability": "view",
      "type": "function"
    },
    {
      "constant": true,
      "inputs": [],
      "name": "kernel",
      "outputs": [
        {
          "name": "",
          "type": "address"
        }
      ],
      "payable": false,
      "stateMutability": "view",
      "type": "function"
    },
    {
      "constant": true,
      "inputs": [],
      "name": "isPetrified",
      "outputs": [
        {
          "name": "",
          "type": "bool"
        }
      ],
      "payable": false,
      "stateMutability": "view",
      "type": "function"
    },
    {
      "constant": true,
      "inputs": [],
      "name": "ADD_REWARD_ROLE",
      "outputs": [
        {
          "name": "",
          "type": "bytes32"
        }
      ],
      "payable": false,
      "stateMutability": "view",
      "type": "function"
    },
    {
      "constant": true,
      "inputs": [],
      "name": "vault",
      "outputs": [
        {
          "name": "",
          "type": "address"
        }
      ],
      "payable": false,
      "stateMutability": "view",
      "type": "function"
    },
    {
      "anonymous": false,
      "inputs": [
        {
          "indexed": false,
          "name": "rewardId",
          "type": "uint256"
        }
      ],
      "name": "RewardAdded",
      "type": "event"
    },
    {
      "anonymous": false,
      "inputs": [
        {
          "indexed": false,
          "name": "rewardId",
          "type": "uint256"
        },
        {
          "indexed": false,
          "name": "claimant",
          "type": "address"
        }
      ],
      "name": "RewardClaimed",
      "type": "event"
    },
    {
      "anonymous": false,
      "inputs": [
        {
          "indexed": true,
          "name": "executor",
          "type": "address"
        },
        {
          "indexed": false,
          "name": "script",
          "type": "bytes"
        },
        {
          "indexed": false,
          "name": "input",
          "type": "bytes"
        },
        {
          "indexed": false,
          "name": "returnData",
          "type": "bytes"
        }
      ],
      "name": "ScriptResult",
      "type": "event"
    },
    {
      "anonymous": false,
      "inputs": [
        {
          "indexed": true,
          "name": "vault",
          "type": "address"
        },
        {
          "indexed": true,
          "name": "token",
          "type": "address"
        },
        {
          "indexed": false,
          "name": "amount",
          "type": "uint256"
        }
      ],
      "name": "RecoverToVault",
      "type": "event"
    },
    {
      "constant": false,
      "inputs": [
        {
          "name": "_vault",
          "type": "address"
        }
      ],
      "name": "initialize",
      "outputs": [],
      "payable": false,
      "stateMutability": "nonpayable",
      "type": "function"
    },
    {
      "constant": false,
      "inputs": [
        {
          "name": "_rewardID",
          "type": "uint256"
        }
      ],
      "name": "claimReward",
      "outputs": [
        {
          "name": "",
          "type": "uint256"
        }
      ],
      "payable": false,
      "stateMutability": "nonpayable",
      "type": "function"
    },
    {
      "constant": true,
      "inputs": [],
      "name": "getRewardsLength",
      "outputs": [
        {
          "name": "rewardsLength",
          "type": "uint256"
        }
      ],
      "payable": false,
      "stateMutability": "view",
      "type": "function"
    },
    {
      "constant": true,
      "inputs": [
        {
          "name": "rewardID",
          "type": "uint256"
        }
      ],
      "name": "getReward",
      "outputs": [
        {
          "name": "description",
          "type": "string"
        },
        {
          "name": "isMerit",
          "type": "bool"
        },
        {
          "name": "referenceToken",
          "type": "address"
        },
        {
          "name": "rewardToken",
          "type": "address"
        },
        {
          "name": "amount",
          "type": "uint256"
        },
        {
          "name": "startBlock",
          "type": "uint256"
        },
        {
          "name": "endBlock",
          "type": "uint256"
        },
        {
          "name": "duration",
          "type": "uint256"
        },
        {
          "name": "delay",
          "type": "uint256"
        },
        {
          "name": "rewardAmount",
          "type": "uint256"
        },
        {
          "name": "timeClaimed",
          "type": "uint256"
        },
        {
          "name": "creator",
          "type": "address"
        }
      ],
      "payable": false,
      "stateMutability": "view",
      "type": "function"
    },
    {
      "constant": true,
      "inputs": [
        {
          "name": "_token",
          "type": "address"
        }
      ],
      "name": "getTotalAmountClaimed",
      "outputs": [
        {
          "name": "",
          "type": "uint256"
        }
      ],
      "payable": false,
      "stateMutability": "view",
      "type": "function"
    },
    {
      "constant": false,
      "inputs": [
        {
          "name": "_description",
          "type": "string"
        },
        {
          "name": "_isMerit",
          "type": "bool"
        },
        {
          "name": "_referenceToken",
          "type": "address"
        },
        {
          "name": "_rewardToken",
          "type": "address"
        },
        {
          "name": "_amount",
          "type": "uint256"
        },
        {
          "name": "_startBlock",
          "type": "uint64"
        },
        {
          "name": "_duration",
          "type": "uint64"
        },
        {
          "name": "_occurrences",
          "type": "uint8"
        },
        {
          "name": "_delay",
          "type": "uint64"
        }
      ],
      "name": "newReward",
      "outputs": [
        {
          "name": "rewardId",
          "type": "uint256"
        }
      ],
      "payable": false,
      "stateMutability": "nonpayable",
      "type": "function"
    }
  ],
  "bytecode": "0x6080604052620000176401000000006200001d810204565b6200023b565b6200003064010000000062000125810204565b60408051808201909152601881527f494e49545f414c52454144595f494e495449414c495a45440000000000000000602082015290156200010c576040517f08c379a00000000000000000000000000000000000000000000000000000000081526004018080602001828103825283818151815260200191508051906020019080838360005b83811015620000d0578181015183820152602001620000b6565b50505050905090810190601f168015620000fe5780820380516001836020036101000a031916815260200191505b509250505060405180910390fd5b506200012360001964010000000062000154810204565b565b60006200014f6000805160206200328b833981519152640100000000620028306200023382021704565b905090565b6200016764010000000062000125810204565b60408051808201909152601881527f494e49545f414c52454144595f494e495449414c495a454400000000000000006020820152901562000206576040517f08c379a000000000000000000000000000000000000000000000000000000000815260040180806020018281038252838181518152602001915080519060200190808383600083811015620000d0578181015183820152602001620000b6565b50620002306000805160206200328b8339815191528264010000000062002f826200023782021704565b50565b5490565b9055565b613040806200024b6000396000f3006080604052600436106101115763ffffffff7c01000000000000000000000000000000000000000000000000000000006000350416630803fac081146101165780631c4b774b1461013f5780632914b9bd146102a457806332f0a3b514610326578063722c314e1461033b5780637e7db6e11461037b57806380afdea8146103a95780638a6c0927146103be5780638b3dd749146103d357806394d304e3146103e85780639d4941d814610497578063a1658fad146104c7578063a479e5081461053b578063ae169a5014610550578063c4d66de814610568578063d4aae0c414610596578063d7da1dee146105ab578063de4796ed146105c0578063e70ef444146105d5578063fbfa77cf146105ea575b600080fd5b34801561012257600080fd5b5061012b6105ff565b604080519115158252519081900360200190f35b34801561014b57600080fd5b50610157600435610629565b60405180806020018d1515151581526020018c73ffffffffffffffffffffffffffffffffffffffff1673ffffffffffffffffffffffffffffffffffffffff1681526020018b73ffffffffffffffffffffffffffffffffffffffff1673ffffffffffffffffffffffffffffffffffffffff1681526020018a81526020018981526020018881526020018781526020018681526020018581526020018481526020018373ffffffffffffffffffffffffffffffffffffffff1673ffffffffffffffffffffffffffffffffffffffff16815260200182810382528e818151815260200191508051906020019080838360005b8381101561025e578181015183820152602001610246565b50505050905090810190601f16801561028b5780820380516001836020036101000a031916815260200191505b509d505050505050505050505050505060405180910390f35b3480156102b057600080fd5b506040805160206004803580820135601f81018490048402850184019095528484526102fd9436949293602493928401919081908401838280828437509497506109789650505050505050565b6040805173ffffffffffffffffffffffffffffffffffffffff9092168252519081900360200190f35b34801561033257600080fd5b506102fd610a84565b34801561034757600080fd5b5061036973ffffffffffffffffffffffffffffffffffffffff60043516610b23565b60408051918252519081900360200190f35b34801561038757600080fd5b5061012b73ffffffffffffffffffffffffffffffffffffffff60043516610bf4565b3480156103b557600080fd5b50610369610bfa565b3480156103ca57600080fd5b50610369610c2a565b3480156103df57600080fd5b50610369610c30565b3480156103f457600080fd5b506040805160206004803580820135601f81018490048402850184019095528484526103699436949293602493928401919081908401838280828437509497505050508235151593505073ffffffffffffffffffffffffffffffffffffffff60208301358116926040810135909116915060608101359067ffffffffffffffff608082013581169160a081013582169160ff60c0830135169160e0013516610c5b565b3480156104a357600080fd5b506104c573ffffffffffffffffffffffffffffffffffffffff6004351661161f565b005b3480156104d357600080fd5b50604080516020600460443581810135838102808601850190965280855261012b95833573ffffffffffffffffffffffffffffffffffffffff169560248035963696956064959394920192918291850190849080828437509497506119419650505050505050565b34801561054757600080fd5b506102fd611ad1565b34801561055c57600080fd5b50610369600435611b93565b34801561057457600080fd5b506104c573ffffffffffffffffffffffffffffffffffffffff60043516612188565b3480156105a257600080fd5b506102fd61231f565b3480156105b757600080fd5b5061036961234a565b3480156105cc57600080fd5b5061012b6123f9565b3480156105e157600080fd5b5061036961242a565b3480156105f657600080fd5b506102fd61244e565b60008061060a610c30565b9050801580159061062257508061061f61246a565b10155b91505b5090565b60606000806000806000806000806000806000806106456105ff565b60408051808201909152601481527f494e49545f4e4f545f494e495449414c495a4544000000000000000000000000602082015290151561071e576040517f08c379a00000000000000000000000000000000000000000000000000000000081526004018080602001828103825283818151815260200191508051906020019080838360005b838110156106e35781810151838201526020016106cb565b50505050905090810190601f1680156107105780820380516001836020036101000a031916815260200191505b509250505060405180910390fd5b505060008d81526002602081815260409283902060058101805485516001821615610100027fffffffffffffffffffffffffffffffffffffffffffffffffffffffffffffffff0190911694909404601f8101849004840285018401909552848452909390918301828280156107d45780601f106107a9576101008083540402835291602001916107d4565b820191906000526020600020905b8154815290600101906020018083116107b757829003601f168201915b50505050509c508060000160149054906101000a900460ff169b508060000160009054906101000a900473ffffffffffffffffffffffffffffffffffffffff169a508060040160009054906101000a900473ffffffffffffffffffffffffffffffffffffffff169950806002015498508060010160009054906101000a900467ffffffffffffffff168160000160159054906101000a900467ffffffffffffffff160167ffffffffffffffff1696508060000160159054906101000a900467ffffffffffffffff1667ffffffffffffffff1697508060010160009054906101000a900467ffffffffffffffff1667ffffffffffffffff1695508060010160089054906101000a900467ffffffffffffffff1667ffffffffffffffff1694508060060160003373ffffffffffffffffffffffffffffffffffffffff1673ffffffffffffffffffffffffffffffffffffffff1681526020019081526020016000205492508060030160009054906101000a900473ffffffffffffffffffffffffffffffffffffffff1691506109668161246e565b93505091939597999b5091939597999b565b6000610982611ad1565b73ffffffffffffffffffffffffffffffffffffffff166304bf2a7f836040518263ffffffff167c01000000000000000000000000000000000000000000000000000000000281526004018080602001828103825283818151815260200191508051906020019080838360005b83811015610a065781810151838201526020016109ee565b50505050905090810190601f168015610a335780820380516001836020036101000a031916815260200191505b5092505050602060405180830381600087803b158015610a5257600080fd5b505af1158015610a66573d6000803e3d6000fd5b505050506040513d6020811015610a7c57600080fd5b505192915050565b6000610a8e61231f565b73ffffffffffffffffffffffffffffffffffffffff166332f0a3b56040518163ffffffff167c0100000000000000000000000000000000000000000000000000000000028152600401602060405180830381600087803b158015610af157600080fd5b505af1158015610b05573d6000803e3d6000fd5b505050506040513d6020811015610b1b57600080fd5b505190505b90565b6000610b2d6105ff565b60408051808201909152601481527f494e49545f4e4f545f494e495449414c495a45440000000000000000000000006020820152901515610bca576040517f08c379a0000000000000000000000000000000000000000000000000000000008152600401808060200182810382528381815181526020019150805190602001908083836000838110156106e35781810151838201526020016106cb565b505073ffffffffffffffffffffffffffffffffffffffff1660009081526020819052604090205490565b50600190565b6000610c257fd625496217aa6a3453eecb9c3489dc5a53e6c67b444329ea2b2cbc9ff547639b612830565b905090565b60015481565b6000610c257febb05b386a8d34882b8711d156f463690983dc47815980fb82aeeff1aa43579e612830565b6040805160008082526020820190925281907f7941efc179bdce37ebd8db3e2deb46ce5280bf6d2de2e50938a9e920494c194190610c9c9033908390611941565b60408051808201909152600f81527f4150505f415554485f4641494c454400000000000000000000000000000000006020820152901515610d39576040517f08c379a0000000000000000000000000000000000000000000000000000000008152600401808060200182810382528381815181526020019150805190602001908083836000838110156106e35781810151838201526020016106cb565b50610d438a612838565b60408051808201909152601e81527f5245464552454e43455f544f4b454e5f4e4f545f415f434f4e545241435400006020820152901515610de0576040517f08c379a0000000000000000000000000000000000000000000000000000000008152600401808060200182810382528381815181526020019150805190602001908083836000838110156106e35781810151838201526020016106cb565b5073ffffffffffffffffffffffffffffffffffffffff89161580610e085750610e0889612838565b6040805190810160405280602081526020017f5245574152445f544f4b454e5f4e4f545f4554485f4f525f434f4e5452414354815250901515610ea7576040517f08c379a0000000000000000000000000000000000000000000000000000000008152600401808060200182810382528381815181526020019150805190602001908083836000838110156106e35781810151838201526020016106cb565b5060408051606081018252602381527f4455524154494f4e5f4d5553545f42455f41545f4c454153545f4f4e455f424c60208201527f4f434b000000000000000000000000000000000000000000000000000000000091810191909152600067ffffffffffffffff881611610f78576040517f08c379a0000000000000000000000000000000000000000000000000000000008152600401808060200182810382528381815181526020019150805190602001908083836000838110156106e35781810151838201526020016106cb565b5060408051808201909152601981527f4f4343555252454e4345535f4c4553535f5448414e5f4f4e45000000000000006020820152600060ff87161161101a576040517f08c379a0000000000000000000000000000000000000000000000000000000008152600401808060200182810382528381815181526020019150805190602001908083836000838110156106e35781810151838201526020016106cb565b508a158061102b57508460ff166001145b606060405190810160405280602181526020017f4d455249545f5245574152445f4d5553545f4f4e4c595f4f434355525f4f4e4381526020017f45000000000000000000000000000000000000000000000000000000000000008152509015156110f1576040517f08c379a0000000000000000000000000000000000000000000000000000000008152600401808060200182810382528381815181526020019150805190602001908083836000838110156106e35781810151838201526020016106cb565b5060408051808201909152601881527f4f43555252454e4345535f4c494d49545f5245414348454400000000000000006020820152602a60ff871610611193576040517f08c379a0000000000000000000000000000000000000000000000000000000008152600401808060200182810382528381815181526020019150805190602001908083836000838110156106e35781810151838201526020016106cb565b508973ffffffffffffffffffffffffffffffffffffffff1663176345146040518163ffffffff167c0100000000000000000000000000000000000000000000000000000000028152600401602060405180830381600087803b1580156111f857600080fd5b505af115801561120c573d6000803e3d6000fd5b505050506040513d602081101561122257600080fd5b505160408051606081018252602281527f53544152545f504552494f445f4245464f52455f544f4b454e5f43524541544960208201527f4f4e000000000000000000000000000000000000000000000000000000000000918101919091529067ffffffffffffffff8916116112f3576040517f08c379a0000000000000000000000000000000000000000000000000000000008152600401808060200182810382528381815181526020019150805190602001908083836000838110156106e35781810151838201526020016106cb565b508a15611428578973ffffffffffffffffffffffffffffffffffffffff1663bef97c876040518163ffffffff167c0100000000000000000000000000000000000000000000000000000000028152600401602060405180830381600087803b15801561135e57600080fd5b505af1158015611372573d6000803e3d6000fd5b505050506040513d602081101561138857600080fd5b505160408051808201909152601681527f4d494e494d455f43414e4e4f545f5452414e534645520000000000000000000060208201529015611426576040517f08c379a0000000000000000000000000000000000000000000000000000000008152600401808060200182810382528381815181526020019150805190602001908083836000838110156106e35781810151838201526020016106cb565b505b600380546001810190915560008181526002602090815260409091208e51929550935061145c9160058501918f0190612f86565b5081546004830180547fffffffffffffffffffffffff000000000000000000000000000000000000000090811673ffffffffffffffffffffffffffffffffffffffff8d811691909117909255600285018b90556001850180547fffffffffffffffffffffffffffffffffffffffffffffffff00000000000000001667ffffffffffffffff8b8116919091177fffffffffffffffffffffffffffffffff0000000000000000ffffffffffffffff16680100000000000000008a831602179091557fffffffffffffffffffffff00ffffffffffffffffffffffffffffffffffffffff909316740100000000000000000000000000000000000000008f151502178116918d16919091177fffffff0000000000000000ffffffffffffffffffffffffffffffffffffffffff167501000000000000000000000000000000000000000000928a16929092029190911783556003830180543392169190911790556040805184815290517fde88a922e0d3b88b24e9623efeb464919c6bf9f66857a65e2bfcf2ce87a9433d916020908290030190a160018560ff1611156116105761160e8c8c8c8c8c8b8d018c60018d038c610c5b565b505b50509998505050505050505050565b600080600061162d84610bf4565b60408051808201909152601281527f5245434f5645525f444953414c4c4f574544000000000000000000000000000060208201529015156116ca576040517f08c379a0000000000000000000000000000000000000000000000000000000008152600401808060200182810382528381815181526020019150805190602001908083836000838110156106e35781810151838201526020016106cb565b506116d3610a84565b92506116de83612838565b60408051808201909152601a81527f5245434f5645525f5641554c545f4e4f545f434f4e5452414354000000000000602082015290151561177b576040517f08c379a0000000000000000000000000000000000000000000000000000000008152600401808060200182810382528381815181526020019150805190602001908083836000838110156106e35781810151838201526020016106cb565b5073ffffffffffffffffffffffffffffffffffffffff841615156117e6576040513031925073ffffffffffffffffffffffffffffffffffffffff84169083156108fc029084906000818181858888f193505050501580156117e0573d6000803e3d6000fd5b506118d6565b508261180e73ffffffffffffffffffffffffffffffffffffffff82163063ffffffff61287216565b915061183773ffffffffffffffffffffffffffffffffffffffff8216848463ffffffff6129ab16565b60408051808201909152601d81527f5245434f5645525f544f4b454e5f5452414e534645525f4641494c454400000060208201529015156118d4576040517f08c379a0000000000000000000000000000000000000000000000000000000008152600401808060200182810382528381815181526020019150805190602001908083836000838110156106e35781810151838201526020016106cb565b505b8373ffffffffffffffffffffffffffffffffffffffff168373ffffffffffffffffffffffffffffffffffffffff167f596caf56044b55fb8c4ca640089bbc2b63cae3e978b851f5745cbb7c5b288e02846040518082815260200191505060405180910390a350505050565b60008061194c6105ff565b151561195b5760009150611ac9565b61196361231f565b905073ffffffffffffffffffffffffffffffffffffffff8116151561198b5760009150611ac9565b8073ffffffffffffffffffffffffffffffffffffffff1663fdef91068630876119b388612a43565b6040517c010000000000000000000000000000000000000000000000000000000063ffffffff871602815273ffffffffffffffffffffffffffffffffffffffff808616600483019081529085166024830152604482018490526080606483019081528351608484015283519192909160a490910190602085019080838360005b83811015611a4b578181015183820152602001611a33565b50505050905090810190601f168015611a785780820380516001836020036101000a031916815260200191505b5095505050505050602060405180830381600087803b158015611a9a57600080fd5b505af1158015611aae573d6000803e3d6000fd5b505050506040513d6020811015611ac457600080fd5b505191505b509392505050565b600080611adc61231f565b604080517fbe00bbd80000000000000000000000000000000000000000000000000000000081527fd6f028ca0e8edb4a8c9757ca4fdccab25fa1e0317da1188108f7d2dee14902fb60048201527fddbcfd564f642ab5627cf68b9b7d374fb4f8a36e941a75d89c87998cef03bd616024820152905173ffffffffffffffffffffffffffffffffffffffff929092169163be00bbd8916044808201926020929091908290030181600087803b158015610a5257600080fd5b600080600080611ba16105ff565b60408051808201909152601481527f494e49545f4e4f545f494e495449414c495a45440000000000000000000000006020820152901515611c3e576040517f08c379a0000000000000000000000000000000000000000000000000000000008152600401808060200182810382528381815181526020019150805190602001908083836000838110156106e35781810151838201526020016106cb565b50600085815260026020908152604080832080548251808401909352601583527f5245574152445f444f45535f4e4f545f4558495354000000000000000000000093830193909352955091750100000000000000000000000000000000000000000090910467ffffffffffffffff1611611d14576040517f08c379a0000000000000000000000000000000000000000000000000000000008152600401808060200182810382528381815181526020019150805190602001908083836000838110156106e35781810151838201526020016106cb565b5060018301548354611d7b9167ffffffffffffffff680100000000000000008204811692611d659275010000000000000000000000000000000000000000009091048216911663ffffffff612a4d16565b67ffffffffffffffff169063ffffffff612a4d16565b67ffffffffffffffff169150611d8f61246a565b60408051606081018252602881527f5245574152445f434c41494d45445f4245464f52455f4455524154494f4e5f4160208201527f4e445f44454c415900000000000000000000000000000000000000000000000091810191909152908310611e54576040517f08c379a0000000000000000000000000000000000000000000000000000000008152600401808060200182810382528381815181526020019150805190602001908083836000838110156106e35781810151838201526020016106cb565b50336000908152600684016020908152604091829020548251808401909352601683527f5245574152445f414c52454144595f434c41494d4544000000000000000000009183019190915215611f06576040517f08c379a0000000000000000000000000000000000000000000000000000000008152600401808060200182810382528381815181526020019150805190602001908083836000838110156106e35781810151838201526020016106cb565b50611f0f612b0b565b336000908152600685016020526040902055611f2a8361246e565b60408051808201909152601281527f4e4f5f5245574152445f544f5f434c41494d0000000000000000000000000000602082015290915060008211611fcb576040517f08c379a0000000000000000000000000000000000000000000000000000000008152600401808060200182810382528381815181526020019150805190602001908083836000838110156106e35781810151838201526020016106cb565b506004805484820154604080517fe3d670d700000000000000000000000000000000000000000000000000000000815273ffffffffffffffffffffffffffffffffffffffff92831694810194909452518493919092169163e3d670d7916024808201926020929091908290030181600087803b15801561204a57600080fd5b505af115801561205e573d6000803e3d6000fd5b505050506040513d602081101561207457600080fd5b505160408051606081018252602681527f5641554c545f4e4f545f454e4f5547485f46554e44535f544f5f434f5645525f60208201527f52455741524400000000000000000000000000000000000000000000000000009181019190915291111561213b576040517f08c379a0000000000000000000000000000000000000000000000000000000008152600401808060200182810382528381815181526020019150805190602001908083836000838110156106e35781810151838201526020016106cb565b506121468382612b0f565b6040805186815233602082015281517f5dd59f4285b36241394b73f8f7ae03d0290b030a86803cf2562ecf33eeb617bd929181900390910190a1949350505050565b612190610c30565b60408051808201909152601881527f494e49545f414c52454144595f494e495449414c495a454400000000000000006020820152901561222c576040517f08c379a0000000000000000000000000000000000000000000000000000000008152600401808060200182810382528381815181526020019150805190602001908083836000838110156106e35781810151838201526020016106cb565b5061223681612838565b60408051808201909152601481527f5641554c545f4e4f545f415f434f4e545241435400000000000000000000000060208201529015156122d3576040517f08c379a0000000000000000000000000000000000000000000000000000000008152600401808060200182810382528381815181526020019150805190602001908083836000838110156106e35781810151838201526020016106cb565b50600480547fffffffffffffffffffffffff00000000000000000000000000000000000000001673ffffffffffffffffffffffffffffffffffffffff831617905561231c612c06565b50565b6000610c257f4172f0f7d2289153072b0a6ca36959e0cbe2efc3afe50fc81636caa96338137b612830565b60006123546105ff565b60408051808201909152601481527f494e49545f4e4f545f494e495449414c495a454400000000000000000000000060208201529015156123f1576040517f08c379a0000000000000000000000000000000000000000000000000000000008152600401808060200182810382528381815181526020019150805190602001908083836000838110156106e35781810151838201526020016106cb565b505060035490565b60007fffffffffffffffffffffffffffffffffffffffffffffffffffffffffffffffff612424610c30565b14905090565b7f7941efc179bdce37ebd8db3e2deb46ce5280bf6d2de2e50938a9e920494c194181565b60045473ffffffffffffffffffffffffffffffffffffffff1681565b4390565b80546001820154604080517f4ee2cd7e00000000000000000000000000000000000000000000000000000000815233600482015267ffffffffffffffff92831675010000000000000000000000000000000000000000008504841601909216602483015251600092839283928392839273ffffffffffffffffffffffffffffffffffffffff90911691634ee2cd7e9160448082019260209290919082900301818787803b15801561251e57600080fd5b505af1158015612532573d6000803e3d6000fd5b505050506040513d602081101561254857600080fd5b505186546001880154604080517f981b24d000000000000000000000000000000000000000000000000000000000815267ffffffffffffffff9283167501000000000000000000000000000000000000000000850484160190921660048301525192965073ffffffffffffffffffffffffffffffffffffffff9091169163981b24d0916024808201926020929091908290030181600087803b1580156125ed57600080fd5b505af1158015612601573d6000803e3d6000fd5b505050506040513d602081101561261757600080fd5b5051865490935074010000000000000000000000000000000000000000900460ff16156127ef5750508354604080517f4ee2cd7e00000000000000000000000000000000000000000000000000000000815233600482015267ffffffffffffffff7501000000000000000000000000000000000000000000840416602482015290518492849273ffffffffffffffffffffffffffffffffffffffff90911691634ee2cd7e916044808201926020929091908290030181600087803b1580156126de57600080fd5b505af11580156126f2573d6000803e3d6000fd5b505050506040513d602081101561270857600080fd5b50518654604080517f981b24d000000000000000000000000000000000000000000000000000000000815267ffffffffffffffff750100000000000000000000000000000000000000000084041660048201529051929096039573ffffffffffffffffffffffffffffffffffffffff9091169163981b24d0916024808201926020929091908290030181600087803b1580156127a357600080fd5b505af11580156127b7573d6000803e3d6000fd5b505050506040513d60208110156127cd57600080fd5b50519092039183821115806127e157508281105b156127ef5760009450612827565b82156128215761281c83612810868960020154612ce590919063ffffffff16565b9063ffffffff612da716565b612824565b60005b94505b50505050919050565b5490565b5490565b60008073ffffffffffffffffffffffffffffffffffffffff83161515612861576000915061286c565b823b90506000811191505b50919050565b6040805173ffffffffffffffffffffffffffffffffffffffff83166024808301919091528251808303909101815260449091019091526020810180517bffffffffffffffffffffffffffffffffffffffffffffffffffffffff167f70a082310000000000000000000000000000000000000000000000000000000017905260009081806128ff8684612e5e565b60408051808201909152601c81527f534146455f4552435f32305f42414c414e43455f524556455254454400000000602082015291935091508215156129a1576040517f08c379a0000000000000000000000000000000000000000000000000000000008152600401808060200182810382528381815181526020019150805190602001908083836000838110156106e35781810151838201526020016106cb565b5095945050505050565b6040805173ffffffffffffffffffffffffffffffffffffffff8416602482015260448082018490528251808303909101815260649091019091526020810180517bffffffffffffffffffffffffffffffffffffffffffffffffffffffff167fa9059cbb00000000000000000000000000000000000000000000000000000000179052600090612a3a8582612e8f565b95945050505050565b8051602002815290565b60408051808201909152601381527f4d41544836345f4144445f4f564552464c4f570000000000000000000000000060208201526000908383019067ffffffffffffffff8086169083161015612aff576040517f08c379a0000000000000000000000000000000000000000000000000000000008152600401808060200182810382528381815181526020019150805190602001908083836000838110156106e35781810151838201526020016106cb565b508091505b5092915050565b4290565b6001805481019055600482015473ffffffffffffffffffffffffffffffffffffffff16600090815260208190526040902054612b51908263ffffffff612edd16565b6004808401805473ffffffffffffffffffffffffffffffffffffffff908116600090815260208190526040808220959095558354925485517fbeabacc80000000000000000000000000000000000000000000000000000000081529083169481019490945233602485015260448401869052935191169263beabacc8926064808201939182900301818387803b158015612bea57600080fd5b505af1158015612bfe573d6000803e3d6000fd5b505050505050565b612c0e610c30565b60408051808201909152601881527f494e49545f414c52454144595f494e495449414c495a4544000000000000000060208201529015612caa576040517f08c379a0000000000000000000000000000000000000000000000000000000008152600401808060200182810382528381815181526020019150805190602001908083836000838110156106e35781810151838201526020016106cb565b50612ce3612cb661246a565b7febb05b386a8d34882b8711d156f463690983dc47815980fb82aeeff1aa43579e9063ffffffff612f8216565b565b600080831515612cf85760009150612b04565b50828202828482811515612d0857fe5b60408051808201909152601181527f4d4154485f4d554c5f4f564552464c4f5700000000000000000000000000000060208201529291900414612aff576040517f08c379a0000000000000000000000000000000000000000000000000000000008152600401808060200182810382528381815181526020019150805190602001908083836000838110156106e35781810151838201526020016106cb565b60408051808201909152600d81527f4d4154485f4449565f5a45524f0000000000000000000000000000000000000060208201526000908190818411612e49576040517f08c379a0000000000000000000000000000000000000000000000000000000008152600401808060200182810382528381815181526020019150805190602001908083836000838110156106e35781810151838201526020016106cb565b508284811515612e5557fe5b04949350505050565b6000806000806040516020818751602089018a5afa92506000831115612e8357805191505b50909590945092505050565b6000806040516020818551602087016000895af16000811115612ed3573d8015612ec05760208114612ec957612ed1565b60019350612ed1565b600183511493505b505b5090949350505050565b60408051808201909152601181527f4d4154485f4144445f4f564552464c4f5700000000000000000000000000000060208201526000908383019084821015612aff576040517f08c379a0000000000000000000000000000000000000000000000000000000008152600401808060200182810382528381815181526020019150805190602001908083836000838110156106e35781810151838201526020016106cb565b9055565b828054600181600116156101000203166002900490600052602060002090601f016020900481019282601f10612fc757805160ff1916838001178555612ff4565b82800160010185558215612ff4579182015b82811115612ff4578251825591602001919060010190612fd9565b5061062592610b209250905b8082111561062557600081556001016130005600a165627a7a72305820e64595c1a39fa0b21255b8111d315be820b824e7a452ca0f0f6a92a64423315e0029ebb05b386a8d34882b8711d156f463690983dc47815980fb82aeeff1aa43579e",
  "source": "/*\n * SPDX-License-Identitifer: GPL-3.0-or-later\n */\n\npragma solidity 0.4.24;\n\nimport \"@aragon/os/contracts/apps/AragonApp.sol\";\nimport \"@aragon/apps-shared-minime/contracts/MiniMeToken.sol\";\nimport \"@aragon/apps-vault/contracts/Vault.sol\";\nimport \"@aragon/os/contracts/lib/math/SafeMath.sol\";\nimport \"@aragon/os/contracts/lib/math/SafeMath64.sol\";\n\n\ncontract Rewards is AragonApp {\n\n    using SafeMath for uint256;\n    using SafeMath64 for uint64;\n    /// Hardcoded constants to save gas\n    bytes32 public constant ADD_REWARD_ROLE = 0x7941efc179bdce37ebd8db3e2deb46ce5280bf6d2de2e50938a9e920494c1941;\n\n    /// Used to limit dividends occurrences for dividend rewards\n    uint8 internal constant MAX_OCCURRENCES = uint8(42);\n\n    /// Error string constants\n    string private constant ERROR_VAULT = \"VAULT_NOT_A_CONTRACT\";\n    string private constant ERROR_REWARD_TIME_SPAN = \"REWARD_CLAIMED_BEFORE_DURATION_AND_DELAY\";\n    string private constant ERROR_VAULT_FUNDS = \"VAULT_NOT_ENOUGH_FUNDS_TO_COVER_REWARD\";\n    string private constant ERROR_REFERENCE_TOKEN = \"REFERENCE_TOKEN_NOT_A_CONTRACT\";\n    string private constant ERROR_REWARD_TOKEN = \"REWARD_TOKEN_NOT_ETH_OR_CONTRACT\";\n    string private constant ERROR_MERIT_OCCURRENCES = \"MERIT_REWARD_MUST_ONLY_OCCUR_ONCE\";\n    string private constant ERROR_MAX_OCCURRENCES = \"OCURRENCES_LIMIT_REACHED\";\n    string private constant ERROR_START_BLOCK = \"START_PERIOD_BEFORE_TOKEN_CREATION\";\n    string private constant ERROR_REWARD_CLAIMED = \"REWARD_ALREADY_CLAIMED\";\n    string private constant ERROR_ZERO_DURATION = \"DURATION_MUST_BE_AT_LEAST_ONE_BLOCK\";\n    string private constant ERROR_ZERO_OCCURRENCE = \"OCCURRENCES_LESS_THAN_ONE\";\n    string private constant ERROR_ZERO_REWARD = \"NO_REWARD_TO_CLAIM\";\n    string private constant ERROR_EXISTS = \"REWARD_DOES_NOT_EXIST\";\n    string private constant ERROR_NONTRANSFERRABLE = \"MINIME_CANNOT_TRANSFER\";\n\n    /// Order optimized for storage\n    struct Reward {\n        MiniMeToken referenceToken;\n        bool isMerit;\n        uint64 blockStart;\n        uint64 duration;\n        uint64 delay;\n        uint256 amount;\n        address creator;\n        address rewardToken;\n        string description;\n        mapping (address => uint) timeClaimed;\n    }\n\n    /// Amount claimed for each token\n    mapping (address => uint) internal totalAmountClaimed;\n    uint256 public totalClaimsEach;\n\n    /// Rewards internal registry\n    mapping(uint256 => Reward) rewards;\n    uint256 rewardsRegistryLength;\n    /// Public vault that holds the funds\n    Vault public vault;\n\n    /// Events\n    event RewardAdded(uint256 rewardId); /// Emitted when a new reward is created\n    event RewardClaimed(uint256 rewardId, address claimant);\n\n    /**\n     * @notice Initialize Rewards app for Vault at `_vault`\n     * @dev Initializes the Rewards app, this is the Aragon custom constructor\n     * @param _vault Address of the vault Rewards will rely on (non changeable)\n     */\n    function initialize(Vault _vault) external onlyInit {\n        require(isContract(_vault), ERROR_VAULT);\n        vault = _vault;\n        initialized();\n    }\n\n    /**\n     * @notice Claim my reward for #`_rewardID`\n     * @dev Allows a user to claim their reward (if one is available)\n     * @param _rewardID The ID of the reward\n     * @return rewardAmount calculated for that reward ID\n     */\n    function claimReward(uint256 _rewardID) external isInitialized returns (uint256) {\n        Reward storage reward = rewards[_rewardID];\n        require(reward.blockStart > 0, ERROR_EXISTS);\n        uint256 rewardTimeSpan = reward.blockStart.add(reward.duration).add(reward.delay);\n        require(rewardTimeSpan < getBlockNumber(), ERROR_REWARD_TIME_SPAN);\n\n        require(reward.timeClaimed[msg.sender] == 0, ERROR_REWARD_CLAIMED);\n        reward.timeClaimed[msg.sender] = getTimestamp();\n\n        uint256 rewardAmount = _calculateRewardAmount(reward);\n        require(rewardAmount > 0, ERROR_ZERO_REWARD);\n        require(vault.balance(reward.rewardToken) >= rewardAmount, ERROR_VAULT_FUNDS);\n\n        _transferReward(reward, rewardAmount);\n\n        emit RewardClaimed(_rewardID, msg.sender);\n        return rewardAmount;\n    }\n\n    /**\n     * @notice Get total rewards count\n     * @dev Gets the lenght of the rewards registry array\n     * @return rewardsLength the length of the rewards array\n     */\n    function getRewardsLength() external view isInitialized returns (uint256 rewardsLength) {\n        rewardsLength = rewardsRegistryLength;\n    }\n\n    /**\n     * @notice Gets information for the reward with ID #`rewardID`\n     * @dev Allows a user to get information about a specific reward\n     * @param rewardID The ID of the reward\n     * @return description message for this reward\n     * @return isMerit true or false in case it is a dividend reward\n     * @return referenceToken used as reference to weight the reward\n     * @return rewardToken used to pay the reward\n     * @return amount for this reward\n     * @return startBlock when the reward went active\n     * @return endBlock when the reward period ended\n     * @return duration number of blocks for the reward duration\n     * @return delay in number of blocks in case the reward claiming is postponed\n     * @return rewardAmount which amount is available to claim\n     * @return timeClaimed when it was claimed by the msg.sender\n     * @return creator the address of the reward creator\n     */\n    function getReward(uint256 rewardID) external view isInitialized returns (\n        string description,\n        bool isMerit,\n        address referenceToken,\n        address rewardToken,\n        uint256 amount,\n        uint256 startBlock,\n        uint256 endBlock,\n        uint256 duration,\n        uint256 delay,\n        uint256 rewardAmount,\n        uint256 timeClaimed,\n        address creator\n    )\n    {\n        Reward storage reward = rewards[rewardID];\n        description = reward.description;\n        isMerit = reward.isMerit;\n        referenceToken = reward.referenceToken;\n        rewardToken = reward.rewardToken;\n        amount = reward.amount;\n        endBlock = reward.blockStart + reward.duration;\n        startBlock = reward.blockStart;\n        duration = reward.duration;\n        delay = reward.delay;\n        timeClaimed = reward.timeClaimed[msg.sender];\n        creator = reward.creator;\n        rewardAmount = _calculateRewardAmount(reward);\n    }\n\n    /**\n     * @notice Get total amount of `_token` claimed\n     * @dev Gets the amount of this token claimed\n     * @return totalAmountClaimed for that token\n     */\n    function getTotalAmountClaimed(address _token)\n    external view isInitialized returns (uint256)\n    {\n        return totalAmountClaimed[_token];\n    }\n\n    /**\n     * @notice Create a `_isMerit ? 'merit reward' : 'dividend'` that will distribute `@tokenAmount(_rewardToken, _amount)` to token holders who `_isMerit ? 'earned ' : 'hold '` `_referenceToken.symbol(): string` `(_occurrences > 1) ? ' from block ' + _startBlock + ' to block ' + (_startBlock + _duration) + '. This dividend will disburse every ' + _duration + ' blocks in proportion to the holders balance on the disbursement date. The first disbursement occurs at the end of the first cycle, on block ' + (_startBlock + _duration) + '.' : (_isMerit ? 'from block ' + _startBlock + 'to block ' + (_startBlock + _duration) +'.' : 'on block '+ _startBlock + '.')` (Reference: `_description`)\n     * @dev This function creates a reward instance to be added to the rewards array. ID's\n     *      are assigned the new intance's index of that array\n     * @param _description description of the reward\n     * @param _isMerit Recurring dividend reward or one-off merit reward\n     * @param _referenceToken the token used to calculate reward distributions for each holder\n     * @param _rewardToken currency received as reward, accepts address 0 for ETH reward\n     * @param _amount the reward amount to be distributed\n     * @param _startBlock block in which token transactions will begin to be tracked\n     * @param _duration the block duration over which reference token earnings are calculated\n     * @param _occurrences the number of occurrences of a dividend reward\n     * @param _delay the number of blocks to delay after the end of the period that the reward can be claimed\n     * @return rewardId of the newly created Reward\n     */\n    function newReward(\n        string _description,\n        bool _isMerit,\n        MiniMeToken _referenceToken,\n        address _rewardToken,\n        uint256 _amount,\n        uint64 _startBlock,\n        uint64 _duration,\n        uint8 _occurrences,\n        uint64 _delay\n    ) public auth(ADD_REWARD_ROLE) returns (uint256 rewardId)\n    {\n        require(isContract(_referenceToken), ERROR_REFERENCE_TOKEN);\n        require(_rewardToken == address(0) || isContract(_rewardToken), ERROR_REWARD_TOKEN);\n        require(_duration > 0, ERROR_ZERO_DURATION);\n        require(_occurrences > 0, ERROR_ZERO_OCCURRENCE);\n        require(!_isMerit || _occurrences == 1, ERROR_MERIT_OCCURRENCES);\n        require(_occurrences < MAX_OCCURRENCES, ERROR_MAX_OCCURRENCES);\n        require(_startBlock > _referenceToken.creationBlock(), ERROR_START_BLOCK);\n        if (_isMerit) {\n            require(!_referenceToken.transfersEnabled(), ERROR_NONTRANSFERRABLE);\n        }\n        rewardId = rewardsRegistryLength++; // increment the rewards array to create a new one\n        Reward storage reward = rewards[rewardsRegistryLength - 1]; // length-1 takes the last, newly created \"empty\" reward\n        reward.description = _description;\n        reward.isMerit = _isMerit;\n        reward.referenceToken = _referenceToken;\n        reward.rewardToken = _rewardToken;\n        reward.amount = _amount;\n        reward.duration = _duration;\n        reward.delay = _delay;\n        reward.blockStart = _startBlock;\n        reward.creator = msg.sender;\n        emit RewardAdded(rewardId);\n        if (_occurrences > 1) {\n            newReward(\n                _description,\n                _isMerit,\n                _referenceToken,\n                _rewardToken,\n                _amount,\n                _startBlock + _duration,\n                _duration,\n                _occurrences - 1,\n                _delay\n            );\n        }\n    }\n\n    /**\n     * @dev Private intermediate function that does the actual vault transfer for a reward and reward amoun\n     */\n    function _transferReward(Reward storage reward, uint256 rewardAmount) private {\n        totalClaimsEach++;\n        totalAmountClaimed[reward.rewardToken] = totalAmountClaimed[reward.rewardToken].add(rewardAmount);\n        vault.transfer(reward.rewardToken, msg.sender, rewardAmount);\n    }\n\n    /**\n     * @dev Private intermediate function to calculate reward amount depending of the type, balance and supply\n     * @return rewardAmount calculated for that reward\n     */\n    function _calculateRewardAmount(Reward storage reward) private view returns (uint256 rewardAmount) {\n        uint256 balance;\n        uint256 supply;\n        balance = reward.referenceToken.balanceOfAt(msg.sender, reward.blockStart + reward.duration);\n        supply = reward.referenceToken.totalSupplyAt(reward.blockStart + reward.duration);\n        if (reward.isMerit) {\n            // This is a pending implementation. We need to look into a way to track earned tokens\n            // to better calculate merit reward amounts\n            uint256 originalBalance = balance;\n            uint256 originalSupply = supply;\n            balance -= reward.referenceToken.balanceOfAt(msg.sender, reward.blockStart);\n            supply -= reward.referenceToken.totalSupplyAt(reward.blockStart);\n            if (originalBalance <= balance || originalSupply < supply) {\n                return 0;\n            }\n        }\n        rewardAmount = supply == 0 ? 0 : reward.amount.mul(balance).div(supply);\n    }\n}\n",
  "sourcePath": "/Users/evalir/Dev/Work/Aragon/open-enterprise/apps/rewards/contracts/Rewards.sol",
  "compiler": {
    "name": "solc",
    "version": "0.4.24+commit.e67f0147.Emscripten.clang"
  },
  "schemaVersion": "2.0.1",
  "updatedAt": "2020-08-27T22:43:50.796Z"
}